{
  "_format": "hh-sol-artifact-1",
  "contractName": "NGOLis",
  "sourceName": "contracts/NGOLis.sol",
  "abi": [
    {
      "inputs": [],
      "name": "InsufficientStakedFunds",
      "type": "error"
    },
    {
      "inputs": [],
      "name": "InvalidPercent",
      "type": "error"
    },
    {
      "inputs": [],
      "name": "NgoFinished",
      "type": "error"
    },
    {
      "inputs": [],
      "name": "NotNgoOwner",
      "type": "error"
    },
    {
      "inputs": [],
      "name": "NotStaked",
      "type": "error"
    },
    {
      "inputs": [
        {
          "internalType": "address",
          "name": "_sender",
          "type": "address"
        },
        {
          "internalType": "address",
          "name": "_owner",
          "type": "address"
        },
        {
          "internalType": "address",
          "name": "oracle",
          "type": "address"
        }
      ],
      "name": "OnlyOwnerOrOracle",
      "type": "error"
    },
    {
      "inputs": [
        {
          "internalType": "uint256",
          "name": "_minStakingDuration",
          "type": "uint256"
        }
      ],
      "name": "ShortStakingDuration",
      "type": "error"
    },
    {
      "inputs": [
        {
          "internalType": "uint256",
          "name": "_currentTime",
          "type": "uint256"
        },
        {
          "internalType": "uint256",
          "name": "_needTime",
          "type": "uint256"
        },
        {
          "internalType": "uint256",
          "name": "_startDate",
          "type": "uint256"
        }
      ],
      "name": "TimeNotPassed",
      "type": "error"
    },
    {
      "inputs": [],
      "name": "WithdrawError",
      "type": "error"
    },
    {
      "anonymous": false,
      "inputs": [
        {
          "indexed": false,
          "internalType": "address",
          "name": "_staker",
          "type": "address"
        },
        {
          "indexed": false,
          "internalType": "uint256",
          "name": "_eth",
          "type": "uint256"
        }
      ],
      "name": "Claimed",
      "type": "event"
    },
    {
      "anonymous": false,
      "inputs": [
        {
          "indexed": false,
          "internalType": "string",
          "name": "_name",
          "type": "string"
        },
        {
          "indexed": false,
          "internalType": "string",
          "name": "_imageLink",
          "type": "string"
        },
        {
          "indexed": false,
          "internalType": "string",
          "name": "_description",
          "type": "string"
        },
        {
          "indexed": false,
          "internalType": "string",
          "name": "_link",
          "type": "string"
        },
        {
          "indexed": false,
          "internalType": "address",
          "name": "rewardsOwner",
          "type": "address"
        },
        {
          "indexed": false,
          "internalType": "address",
          "name": "_ngoAddress",
          "type": "address"
        }
      ],
      "name": "NGOCreated",
      "type": "event"
    },
    {
      "anonymous": false,
      "inputs": [
        {
          "indexed": false,
          "internalType": "address",
          "name": "_ngo",
          "type": "address"
        },
        {
          "indexed": false,
          "internalType": "uint256",
          "name": "_timestamp",
          "type": "uint256"
        }
      ],
      "name": "NGOFinished",
      "type": "event"
    },
    {
      "anonymous": false,
      "inputs": [
        {
          "indexed": false,
          "internalType": "uint256",
          "name": "_rewardsPool",
          "type": "uint256"
        },
        {
          "indexed": false,
          "internalType": "uint256",
          "name": "_stakedBalance",
          "type": "uint256"
        },
        {
          "indexed": false,
          "internalType": "uint256",
          "name": "_totalShare",
          "type": "uint256"
        },
        {
          "indexed": false,
          "internalType": "uint256",
          "name": "_dateRecountRewards",
          "type": "uint256"
        }
      ],
      "name": "RewardsUpdated",
      "type": "event"
    },
    {
      "anonymous": false,
      "inputs": [
        {
          "indexed": false,
          "internalType": "address",
          "name": "_staker",
          "type": "address"
        },
        {
          "indexed": false,
          "internalType": "uint256",
          "name": "_amountStaked",
          "type": "uint256"
        },
        {
          "indexed": false,
          "internalType": "uint16",
          "name": "_percentShare",
          "type": "uint16"
        },
        {
          "indexed": false,
          "internalType": "uint256",
          "name": "_duration",
          "type": "uint256"
        },
        {
          "indexed": false,
          "internalType": "address",
          "name": "_ngo",
          "type": "address"
        },
        {
          "indexed": false,
          "internalType": "uint256",
          "name": "_startDate",
          "type": "uint256"
        }
      ],
      "name": "Staked",
      "type": "event"
    },
    {
      "anonymous": false,
      "inputs": [
        {
          "indexed": false,
          "internalType": "address",
          "name": "_claimer",
          "type": "address"
        },
        {
          "indexed": false,
          "internalType": "address",
          "name": "_ngo",
          "type": "address"
        },
        {
          "indexed": false,
          "internalType": "uint256",
          "name": "_amount",
          "type": "uint256"
        },
        {
          "indexed": false,
          "internalType": "uint256",
          "name": "_requestId",
          "type": "uint256"
        }
      ],
      "name": "WithdrawClaimed",
      "type": "event"
    },
    {
      "anonymous": false,
      "inputs": [
        {
          "indexed": false,
          "internalType": "address",
          "name": "_staker",
          "type": "address"
        },
        {
          "indexed": false,
          "internalType": "address",
          "name": "_ngo",
          "type": "address"
        },
        {
          "indexed": false,
          "internalType": "uint256",
          "name": "_requestId",
          "type": "uint256"
        }
      ],
      "name": "WithdrawRequested",
      "type": "event"
    },
    {
      "inputs": [],
      "name": "_rewardsToNgo",
      "outputs": [
        {
          "internalType": "uint256",
          "name": "",
          "type": "uint256"
        }
      ],
      "stateMutability": "view",
      "type": "function"
    },
    {
      "inputs": [
        {
          "internalType": "uint256",
          "name": "_requestId",
          "type": "uint256"
        }
      ],
      "name": "claimWithdrawal",
      "outputs": [],
      "stateMutability": "nonpayable",
      "type": "function"
    },
    {
      "inputs": [],
      "name": "endNGO",
      "outputs": [],
      "stateMutability": "nonpayable",
      "type": "function"
    },
    {
      "inputs": [
        {
          "internalType": "uint256",
          "name": "_timestamp",
          "type": "uint256"
        }
      ],
      "name": "getHistoryData",
      "outputs": [
        {
          "internalType": "uint256",
          "name": "_reward",
          "type": "uint256"
        },
        {
          "internalType": "uint256",
          "name": "_totalShares",
          "type": "uint256"
        },
        {
          "internalType": "uint256",
          "name": "_balance",
          "type": "uint256"
        }
      ],
      "stateMutability": "view",
      "type": "function"
    },
    {
      "inputs": [
        {
          "internalType": "uint256",
          "name": "_timestamp",
          "type": "uint256"
        }
      ],
      "name": "getRoundDate",
      "outputs": [
        {
          "internalType": "uint256",
          "name": "",
          "type": "uint256"
        }
      ],
      "stateMutability": "pure",
      "type": "function"
    },
    {
      "inputs": [
        {
          "internalType": "address",
          "name": "_user",
          "type": "address"
        }
      ],
      "name": "getUserShare",
      "outputs": [
        {
          "internalType": "uint256",
          "name": "_userRewards",
          "type": "uint256"
        },
        {
          "internalType": "uint256",
          "name": "_ngoRewards",
          "type": "uint256"
        }
      ],
      "stateMutability": "view",
      "type": "function"
    },
    {
      "inputs": [
        {
          "internalType": "address",
          "name": "_user",
          "type": "address"
        }
      ],
      "name": "getUserStakeInfo",
      "outputs": [
        {
          "components": [
            {
              "internalType": "uint16",
              "name": "percent",
              "type": "uint16"
            },
            {
              "internalType": "uint256",
              "name": "duration",
              "type": "uint256"
            },
            {
              "internalType": "uint256",
              "name": "amount",
              "type": "uint256"
            },
            {
              "internalType": "uint256",
              "name": "startDate",
              "type": "uint256"
            }
          ],
          "internalType": "struct NGOLis.StakeInfo",
          "name": "_userStakeInfo",
          "type": "tuple"
        }
      ],
      "stateMutability": "view",
      "type": "function"
    },
    {
      "inputs": [],
      "name": "handleNGOShareDistribution",
      "outputs": [],
      "stateMutability": "nonpayable",
      "type": "function"
    },
    {
      "inputs": [
        {
          "internalType": "address",
          "name": "lidoSCAddress",
          "type": "address"
        },
        {
          "internalType": "address",
          "name": "_rewardOwnerAddress",
          "type": "address"
        },
        {
          "internalType": "address",
          "name": "withdrawalSCAddress",
          "type": "address"
        },
        {
          "internalType": "address",
          "name": "oracleAddress",
          "type": "address"
        }
      ],
      "name": "initialize",
      "outputs": [],
      "stateMutability": "nonpayable",
      "type": "function"
    },
    {
      "inputs": [],
      "name": "isFinish",
      "outputs": [
        {
          "internalType": "bool",
          "name": "",
          "type": "bool"
        }
      ],
      "stateMutability": "view",
      "type": "function"
    },
    {
      "inputs": [],
      "name": "isInitialized",
      "outputs": [
        {
          "internalType": "bool",
          "name": "",
          "type": "bool"
        }
      ],
      "stateMutability": "view",
      "type": "function"
    },
    {
      "inputs": [],
      "name": "lastCountRewardsTimestamp",
      "outputs": [
        {
          "internalType": "uint256",
          "name": "",
          "type": "uint256"
        }
      ],
      "stateMutability": "view",
      "type": "function"
    },
    {
      "inputs": [],
      "name": "lidoSC",
      "outputs": [
        {
          "internalType": "contract ILido",
          "name": "",
          "type": "address"
        }
      ],
      "stateMutability": "view",
      "type": "function"
    },
    {
      "inputs": [],
      "name": "oracle",
      "outputs": [
        {
          "internalType": "address",
          "name": "",
          "type": "address"
        }
      ],
      "stateMutability": "view",
      "type": "function"
    },
    {
      "inputs": [
        {
          "internalType": "address",
          "name": "_to",
          "type": "address"
        }
      ],
      "name": "requestWithdrawForOwner",
      "outputs": [],
      "stateMutability": "nonpayable",
      "type": "function"
    },
    {
      "inputs": [
        {
          "internalType": "uint256",
          "name": "_amount",
          "type": "uint256"
        }
      ],
      "name": "requestWithdrawals",
      "outputs": [],
      "stateMutability": "nonpayable",
      "type": "function"
    },
    {
      "inputs": [],
      "name": "rewardsOwner",
      "outputs": [
        {
          "internalType": "address",
          "name": "",
          "type": "address"
        }
      ],
      "stateMutability": "view",
      "type": "function"
    },
    {
      "inputs": [
        {
          "internalType": "uint16",
          "name": "_ngoPercent",
          "type": "uint16"
        },
        {
          "internalType": "uint256",
          "name": "_duration",
          "type": "uint256"
        }
      ],
      "name": "stake",
      "outputs": [],
      "stateMutability": "payable",
      "type": "function"
    },
    {
      "inputs": [],
      "name": "stakedToday",
      "outputs": [
        {
          "internalType": "uint256",
          "name": "",
          "type": "uint256"
        }
      ],
      "stateMutability": "view",
      "type": "function"
    },
    {
      "inputs": [],
      "name": "totalShareToday",
      "outputs": [
        {
          "internalType": "uint256",
          "name": "",
          "type": "uint256"
        }
      ],
      "stateMutability": "view",
      "type": "function"
    },
    {
      "inputs": [],
      "name": "withdrawalSC",
      "outputs": [
        {
          "internalType": "contract IWithdrawalQueue",
          "name": "",
          "type": "address"
        }
      ],
      "stateMutability": "view",
      "type": "function"
    }
  ],
  "bytecode": "0x608060405234801561001057600080fd5b50611c9d806100206000396000f3fe60806040526004361061016a5760003560e01c8063b950cc93116100cb578063d4a79d941161007f578063f618260711610059578063f618260714610453578063f84444361461048e578063f8c8765e146104ae57600080fd5b8063d4a79d9414610411578063d6ae3cfa14610427578063d89f20d31461043d57600080fd5b8063beef80a6116100b0578063beef80a614610360578063c32d3ae21461038d578063d21294cc146103e457600080fd5b8063b950cc931461030b578063bbbaee4c1461032b57600080fd5b8063392e53cd116101225780637dc0d1d0116101075780637dc0d1d0146102ab578063863ed73d146102d857806397a32a3c146102eb57600080fd5b8063392e53cd14610254578063548adead1461028757600080fd5b806320b3b1171161015357806320b3b1171461019b5780632963a287146101f25780632c8ca0ea1461021257600080fd5b80630ef43a581461016f5780631fa5685714610186575b600080fd5b34801561017b57600080fd5b506101846104ce565b005b34801561019257600080fd5b50610184610642565b3480156101a757600080fd5b50600a546101c89073ffffffffffffffffffffffffffffffffffffffff1681565b60405173ffffffffffffffffffffffffffffffffffffffff90911681526020015b60405180910390f35b3480156101fe57600080fd5b5061018461020d36600461174e565b6107c0565b34801561021e57600080fd5b50600b546102449074010000000000000000000000000000000000000000900460ff1681565b60405190151581526020016101e9565b34801561026057600080fd5b50600b54610244907501000000000000000000000000000000000000000000900460ff1681565b34801561029357600080fd5b5061029d60065481565b6040519081526020016101e9565b3480156102b757600080fd5b506008546101c89073ffffffffffffffffffffffffffffffffffffffff1681565b6101846102e6366004611767565b610aa9565b3480156102f757600080fd5b5061029d61030636600461174e565b610d7c565b34801561031757600080fd5b506101846103263660046117bf565b610d9e565b34801561033757600080fd5b5061034b6103463660046117bf565b611076565b604080519283526020830191909152016101e9565b34801561036c57600080fd5b50600b546101c89073ffffffffffffffffffffffffffffffffffffffff1681565b34801561039957600080fd5b506103ad6103a83660046117bf565b6111ff565b6040516101e99190815161ffff16815260208083015190820152604080830151908201526060918201519181019190915260800190565b3480156103f057600080fd5b506009546101c89073ffffffffffffffffffffffffffffffffffffffff1681565b34801561041d57600080fd5b5061029d60005481565b34801561043357600080fd5b5061029d60055481565b34801561044957600080fd5b5061029d60025481565b34801561045f57600080fd5b5061047361046e36600461174e565b61128d565b604080519384526020840192909252908201526060016101e9565b34801561049a57600080fd5b506101846104a936600461174e565b6112cc565b3480156104ba57600080fd5b506101846104c93660046117e3565b611582565b60006104d86116a7565b905060006001546000141561050b576127106000546002546104fa919061186e565b61050491906118a9565b905061052b565b61271060015460025461051e919061186e565b61052891906118a9565b90505b61271061053882826118e6565b60015461054590856118e6565b61054f91906118a9565b610559919061186e565b6004819055506000546001600082825461057391906118fd565b90915550506002546003805460009061058d9084906118fd565b909155505060048054600580546000908152600d60209081526040808320949094556003805484548452600e83528584205583548352600f8252918490208790559354600154915492548451918252948101919091529182015260608101919091527f8273d7f65f55c5eb2a6f57c6c495c25963000db2d5a012015df8569cb9c09dd39060800160405180910390a1620151806005600082825461063191906118fd565b909155505060008080556002555050565b600b5474010000000000000000000000000000000000000000900460ff1615610697576040517f1b001d1000000000000000000000000000000000000000000000000000000000815260040160405180910390fd5b600b54339073ffffffffffffffffffffffffffffffffffffffff1681148015906106dc575060085473ffffffffffffffffffffffffffffffffffffffff828116911614155b1561074657600b546008546040517fde6bb33200000000000000000000000000000000000000000000000000000000815273ffffffffffffffffffffffffffffffffffffffff80851660048301529283166024820152911660448201526064015b60405180910390fd5b600b80547fffffffffffffffffffffff00ffffffffffffffffffffffffffffffffffffffff1674010000000000000000000000000000000000000000179055604080513081524260208201527fcc325b0850cf30dd4c8cc58ec8ac3fad91c204fdb343481f84cff40dc32dbcc0910160405180910390a150565b336000908152600c60209081526040918290208251608081018452815461ffff16815260018201549281019290925260028101549282018390526003015460608201529061083a576040517f039f2e1800000000000000000000000000000000000000000000000000000000815260040160405180910390fd5b428160200151826060015161084f91906118fd565b10156108a057602081015160608201516040517fba6f21b20000000000000000000000000000000000000000000000000000000081524260048201526024810192909252604482015260640161073d565b6000806108ac33611076565b91509150838284604001516108c191906118fd565b10156108f9576040517f188ded2100000000000000000000000000000000000000000000000000000000815260040160405180910390fd5b806006600082825461090b91906118fd565b909155505060408051600180825281830190925260009160208083019080368337019050509050848160008151811061094657610946611944565b6020908102919091010152600a546040517fd668104200000000000000000000000000000000000000000000000000000000815260009173ffffffffffffffffffffffffffffffffffffffff169063d6681042906109aa90859030906004016119ae565b600060405180830381600087803b1580156109c457600080fd5b505af11580156109d8573d6000803e3d6000fd5b505050506040513d6000823e601f3d9081017fffffffffffffffffffffffffffffffffffffffffffffffffffffffffffffffe0168201604052610a1e9190810190611a82565b90507f684a72064b64d0086ceb0035fc0d62aa0e9cf8b355bf49e956a943bdda24f6e0333083600081518110610a5657610a56611944565b6020026020010151604051610a999392919073ffffffffffffffffffffffffffffffffffffffff9384168152919092166020820152604081019190915260600190565b60405180910390a1505050505050565b600b5474010000000000000000000000000000000000000000900460ff1615610afe576040517f1b001d1000000000000000000000000000000000000000000000000000000000815260040160405180910390fd5b606461ffff83161080610b16575061271061ffff8316115b15610b4d576040517fb92e9c7a00000000000000000000000000000000000000000000000000000000815260040160405180910390fd5b62278d00811015610b8f576040517f1956f3b800000000000000000000000000000000000000000000000000000000815262278d00600482015260240161073d565b6009546040517fa1903eab00000000000000000000000000000000000000000000000000000000815230600482015273ffffffffffffffffffffffffffffffffffffffff9091169063a1903eab9034906024016020604051808303818588803b158015610bfb57600080fd5b505af1158015610c0f573d6000803e3d6000fd5b50505050506040513d601f19601f82011682018060405250810190610c349190611b18565b506040805160808101825261ffff841681526020808201849052336000908152600c909152829020600201549091820190610c709034906118fd565b8152600554602091820152336000908152600c82526040808220845181547fffffffffffffffffffffffffffffffffffffffffffffffffffffffffffff00001661ffff909116178155928401516001840155830151600283015560609092015160039091015580543491908190610ce89084906118fd565b909155506127109050610cff61ffff8416346118a9565b610d09919061186e565b60026000828254610d1a91906118fd565b90915550506005546040805133815234602082015261ffff8516818301526060810184905230608082015260a0810192909252517f3ec7b29050bc1761fc72e6db195e6792b68638fc2d9c1c0151967dc97529af199181900360c00190a15050565b6000610d8b620151808361186e565b610d9890620151806118a9565b92915050565b600b54339073ffffffffffffffffffffffffffffffffffffffff168114801590610de3575060085473ffffffffffffffffffffffffffffffffffffffff828116911614155b15610e4857600b546008546040517fde6bb33200000000000000000000000000000000000000000000000000000000815273ffffffffffffffffffffffffffffffffffffffff808516600483015292831660248201529116604482015260640161073d565b60095460075460065460009273ffffffffffffffffffffffffffffffffffffffff9081169263a9059cbb9291169061271090610e87906101f4906118a9565b610e91919061186e565b6040517fffffffff0000000000000000000000000000000000000000000000000000000060e085901b16815273ffffffffffffffffffffffffffffffffffffffff90921660048301526024820152604401602060405180830381600087803b158015610efc57600080fd5b505af1158015610f10573d6000803e3d6000fd5b505050506040513d601f19601f82011682018060405250810190610f349190611b46565b60095460065491925060009173ffffffffffffffffffffffffffffffffffffffff9091169063a9059cbb90869061271090610f72906101f4906118a9565b610f7c919061186e565b600654610f8991906118e6565b6040517fffffffff0000000000000000000000000000000000000000000000000000000060e085901b16815273ffffffffffffffffffffffffffffffffffffffff90921660048301526024820152604401602060405180830381600087803b158015610ff457600080fd5b505af1158015611008573d6000803e3d6000fd5b505050506040513d601f19601f8201168201806040525081019061102c9190611b46565b9050801580611039575081155b15611070576040517fd477157400000000000000000000000000000000000000000000000000000000815260040160405180910390fd5b50505050565b60008060006110836116a7565b73ffffffffffffffffffffffffffffffffffffffff85166000908152600c602090815260408083208151608081018352815461ffff168152600180830154948201949094526002820154928101839052600390910154606082015291549394509092906110f19085906118a9565b6110fb919061186e565b905060008260200151836060015161111391906118fd565b9050428111156111725782516127109061113290849061ffff166118a9565b61113c919061186e565b61114690836118e6565b83516127109061115b90859061ffff166118a9565b611165919061186e565b9550955050505050915091565b6000818152600e6020908152604080832054600f909252808320549086015161119b91906118a9565b6111a5919061186e565b905061271081856000015161ffff166111be91906118a9565b6111c8919061186e565b6111d290846118e6565b8451612710906111e790849061ffff166118a9565b6111f1919061186e565b965096505050505050915091565b61122e6040518060800160405280600061ffff1681526020016000815260200160008152602001600081525090565b5073ffffffffffffffffffffffffffffffffffffffff166000908152600c60209081526040918290208251608081018452815461ffff168152600182015492810192909252600281015492820192909252600390910154606082015290565b60008060008061129c85610d7c565b6000908152600d6020908152604080832054600e835281842054600f909352922054919790965090945092505050565b60408051600180825281830190925260009160208083019080368337019050509050818160008151811061130257611302611944565b6020908102919091010152600a546040517fb8c4b85a00000000000000000000000000000000000000000000000000000000815260009173ffffffffffffffffffffffffffffffffffffffff169063b8c4b85a90611364908590600401611b61565b60006040518083038186803b15801561137c57600080fd5b505afa158015611390573d6000803e3d6000fd5b505050506040513d6000823e601f3d9081017fffffffffffffffffffffffffffffffffffffffffffffffffffffffffffffffe01682016040526113d69190810190611b74565b6000815181106113e8576113e8611944565b602002602001015190508060800151611483576040517f08c379a000000000000000000000000000000000000000000000000000000000815260206004820152602660248201527f5468652072657175657374206973206e6f7420617661696c61626c6520666f7260448201527f20636c61696d0000000000000000000000000000000000000000000000000000606482015260840161073d565b600a546040517ff84444360000000000000000000000000000000000000000000000000000000081526004810185905273ffffffffffffffffffffffffffffffffffffffff9091169063f844443690602401600060405180830381600087803b1580156114ef57600080fd5b505af1158015611503573d6000803e3d6000fd5b5050825160405133935081156108fc0292506000818181858888f19350505050158015611534573d6000803e3d6000fd5b508051604080513381523060208201528082019290925260608201859052517fb4317ae2386e712514c7723055d29e3f5b96ebd3f972f1ef3bbcdcf4a8ce40c09181900360800190a1505050565b600b547501000000000000000000000000000000000000000000900460ff16156115ab57600080fd5b600b805460078054337fffffffffffffffffffffffff00000000000000000000000000000000000000009182161790915560098054821673ffffffffffffffffffffffffffffffffffffffff89811691909117909155600a80549092168682161790915575010000000000000000000000000000000000000000007fffffffffffffffffffff00ff00000000000000000000000000000000000000009092169086161717905561165a42610d7c565b600555600880547fffffffffffffffffffffffff00000000000000000000000000000000000000001673ffffffffffffffffffffffffffffffffffffffff92909216919091179055505050565b6009546040517f70a0823100000000000000000000000000000000000000000000000000000000815230600482015260009173ffffffffffffffffffffffffffffffffffffffff16906370a082319060240160206040518083038186803b15801561171157600080fd5b505afa158015611725573d6000803e3d6000fd5b505050506040513d601f19601f820116820180604052508101906117499190611b18565b905090565b60006020828403121561176057600080fd5b5035919050565b6000806040838503121561177a57600080fd5b823561ffff8116811461178c57600080fd5b946020939093013593505050565b73ffffffffffffffffffffffffffffffffffffffff811681146117bc57600080fd5b50565b6000602082840312156117d157600080fd5b81356117dc8161179a565b9392505050565b600080600080608085870312156117f957600080fd5b84356118048161179a565b935060208501356118148161179a565b925060408501356118248161179a565b915060608501356118348161179a565b939692955090935050565b7f4e487b7100000000000000000000000000000000000000000000000000000000600052601160045260246000fd5b6000826118a4577f4e487b7100000000000000000000000000000000000000000000000000000000600052601260045260246000fd5b500490565b6000817fffffffffffffffffffffffffffffffffffffffffffffffffffffffffffffffff04831182151516156118e1576118e161183f565b500290565b6000828210156118f8576118f861183f565b500390565b600082198211156119105761191061183f565b500190565b7f4e487b7100000000000000000000000000000000000000000000000000000000600052604160045260246000fd5b7f4e487b7100000000000000000000000000000000000000000000000000000000600052603260045260246000fd5b600081518084526020808501945080840160005b838110156119a357815187529582019590820190600101611987565b509495945050505050565b6040815260006119c16040830185611973565b905073ffffffffffffffffffffffffffffffffffffffff831660208301529392505050565b60405160c0810167ffffffffffffffff81118282101715611a0957611a09611915565b60405290565b604051601f82017fffffffffffffffffffffffffffffffffffffffffffffffffffffffffffffffe016810167ffffffffffffffff81118282101715611a5657611a56611915565b604052919050565b600067ffffffffffffffff821115611a7857611a78611915565b5060051b60200190565b60006020808385031215611a9557600080fd5b825167ffffffffffffffff811115611aac57600080fd5b8301601f81018513611abd57600080fd5b8051611ad0611acb82611a5e565b611a0f565b81815260059190911b82018301908381019087831115611aef57600080fd5b928401925b82841015611b0d57835182529284019290840190611af4565b979650505050505050565b600060208284031215611b2a57600080fd5b5051919050565b80518015158114611b4157600080fd5b919050565b600060208284031215611b5857600080fd5b6117dc82611b31565b6020815260006117dc6020830184611973565b60006020808385031215611b8757600080fd5b825167ffffffffffffffff811115611b9e57600080fd5b8301601f81018513611baf57600080fd5b8051611bbd611acb82611a5e565b81815260c09182028301840191848201919088841115611bdc57600080fd5b938501935b83851015611c5b5780858a031215611bf95760008081fd5b611c016119e6565b855181528686015187820152604080870151611c1c8161179a565b90820152606086810151908201526080611c37818801611b31565b9082015260a0611c48878201611b31565b9082015283529384019391850191611be1565b5097965050505050505056fea264697066735822122033f28a7ad0aca086814921db116bce62e0e1983087551565e1e46f51716ddfa364736f6c63430008090033",
  "linkReferences": {},
  "deployedLinkReferences": {}
}